S0220000636C65616E5F626F745F68617264776172645F636F6E74726F6C2E737265634F
S11300000C9434000C9451000C9451000C94510045
S11300100C9451000C9451000C9451000C94510018
S11300200C9451000C94CF010C9451000C94510089
S11300300C9451000C9451000C9451000C945100F8
S11300400C9410020C9451000C9465010C94510012
S11300500C9451000C949B030C9451000C9451008B
S11300600C94E6040C94510011241FBECFEFD8E089
S1130070DEBFCDBF11E0A0E0B1E0E6E0F5E102C0F3
S113008005900D92A237B107D9F721E0A2E7B1E0BC
S113009001C01D92AE3CB207E1F70E9462080C94C5
S11300A0810A0C9400005F9A08955F980895579A06
S11300B05F9808950E94860920E030E040E851E40A
S11300C00E94140A9B01AC0160E074E284EF9AE49C
S11300D00E94E50820E030E040E05FE30E947808F9
S11300E00E9457097093C5006093C4000895E0EC22
S11300F0F0E0908195FFFDCF8093C6000895CF93E3
S1130100DF93EC018881882331F021960E947700E7
S113011089918111FBCFDF91CF910895CF93C82F9F
S113012088E18093C10060E076E980E090E00E947D
S11301305A00289A29988FE19EE40197F1F700C0AC
S11301400000299AC13009F060C09FEF24E38CE0DD
S1130150915020408040E1F700C0000080E091E031
S11301600E947F009FEF24E38CE091502040804068
S1130170E1F700C0000080E191E00E947F009FEF62
S113018024E38CE0915020408040E1F700C000005F
S11301908EE191E00E947F009FEF24E38CE0915078
S11301A020408040E1F700C0000082E391E00E941B
S11301B07F009FEF24E38CE0915020408040E1F7E2
S11301C000C000008EE391E00E947F009FEF24E3D3
S11301D08CE0915020408040E1F700C0000088E4AA
S11301E091E00E947F0081E591E00E947F008FE50D
S11301F091E00E947F009FEF24E38CE09150204027
S11302008040E1F700C0000043C0C11141C09FEF2E
S113021024E38CE0915020408040E1F700C00000CE
S113022080E091E00E947F009FEF24E38CE09150F6
S113023020408040E1F700C0000080E191E00E948E
S11302407F009FEF24E38CE0915020408040E1F751
S113025000C000008EE191E00E947F009FEF24E344
S11302608CE0915020408040E1F700C0000085E61A
S113027091E00E947F009FEF24E38CE091502040A6
S11302808040E1F700C000008EE391E00E947F000F
S11302909FEF29E688E1915020408040E1F700C0BB
S11302A0000060E076E980E090E00E945A0028981F
S11302B029988FE19EE40197F1F700C00000299A84
S11302C088E98093C100CF9108951F920F920FB6D1
S11302D00F9211242F933F938F939F93EF93FF9348
S11302E08091A8019091A9019C012F5F3F4F309309
S11302F0A9012093A8012091C600FC01EA54FE4FF5
S1130300208381E0809378012A9AFF91EF919F9155
S11303108F913F912F910F900FBE0F901F901895C2
S11303201092C00028E92093C10026E02093C20067
S11303300E945A0084B1836084B9229A29988FE17B
S11303409EE40197F1F700C00000299A089585B54D
S1130350846085BDEEE6F0E080818160808308954D
S1130360EEE6F0E080818E7F808385B58B7F85BD4E
S11303700895E1EBF0E0808186608083E0E7F0E0BF
S11303808081816080830895E0E7F0E080818E7F42
S11303908083E1EBF0E08081897F808308951F9260
S11303A00F920FB60F9211248F939F9380917F0128
S11303B0909180018093B2009BB188E089278BB92A
S11303C09F918F910F900FBE0F901F9018955A9880
S11303D080917D01882319F0813019F003C05E9863
S11303E001C05E9A80917E01882319F0813019F052
S11303F003C05C9A01C05C980E94A7010E94B901E5
S113040008950E94B0010E94C4012FEF81EE94E090
S1130410215080409040E1F700C000005A9A0895AE
S11304201F920F920FB60F9211242F933F934F9365
S11304305F936F937F938F939F93AF93BF93EF9348
S1130440FF938091CC019091CD0186BD9BB180E258
S113045089278BB98091A701882309F44FC1809122
S113046081018130F9F030F08230A1F1833009F458
S113047049C05FC080917D0181110AC080919901BA
S113048090919A01019690939A018093990151C099
S11304908091990190919A01019790939A01809388
S11304A0990147C080917D0181110AC08091850125
S11304B0909186010197909386018093850139C0BC
S11304C08091850190918601019690938601809395
S11304D085012FC080917D0181110AC0809199010D
S11304E090919A01019790939A018093990121C068
S11304F08091990190919A01019690939A01809329
S1130500990117C080917D0181110AC080918501F4
S1130510909186010196909386018093850109C08C
S11305208091850190918601019790938601809333
S1130530850180918201882309F4E0C080918101C2
S11305408130F1F138F0823009F470C0833009F45D
S1130550A2C0D4C080917D01811119C080919901FC
S113056090919A014091A5015091A60120917901A1
S113057030917A01841B950B8217930708F4BEC04F
S11305800E94010282E0809378012A9AB7C0809188
S1130590A5019091A6014091990150919A01209151
S11305A0790130917A01841B950B8217930708F423
S11305B0A5C00E94010282E0809378012A9A9EC01D
S11305C080917D01811119C080917B0190917C0102
S11305D040918501509186012091790130917A01F1
S11305E0841B950B8217930708F488C00E940102AC
S11305F082E0809378012A9A81C08091850190914C
S1130600860140917B0150917C01209179013091C8
S11306107A01841B950B8217930708F46FC00E941C
S1130620010282E0809378012A9A68C080917D015A
S1130630811119C08091A5019091A6014091990161
S113064050919A012091790130917A01841B950B84
S11306508217930708F452C00E94010282E080933B
S113066078012A9A4BC08091990190919A01409106
S1130670A5015091A6012091790130917A01841B42
S1130680950B82179307D0F10E94010282E08093B8
S113069078012A9A33C080917D01811118C080911C
S11306A085019091860140917B0150917C012091BC
S11306B0790130917A01841B950B82179307F0F02E
S11306C00E94010282E0809378012A9A17C08091E7
S11306D07B0190917C01409185015091860120918C
S11306E0790130917A01841B950B8217930730F0BE
S11306F00E94010282E0809378012A9AFF91EF918F
S1130700BF91AF919F918F917F916F915F914F9125
S11307103F912F910F900FBE0F901F9018958AB1A3
S11307208C678AB95A9A089580E480937C008FEC90
S113073080937A0008951F920F920FB60F9211249E
S11307408F929F92AF92BF92EF92FF920F931F935B
S11307502F933F934F935F936F937F938F939F93C5
S1130760AF93BF93CF93DF93EF93FF93E091870110
S1130770F09188018091780090917900EE0FFF1F2D
S1130780E757FE4F91838083ECE7F0E08081807F20
S113079080838091870190918801019690938801CC
S11307A0809387019081892B808380918701909128
S11307B08801089709F0E6C0109288011092870119
S11307C08081807F80838091770181112BC0A9E88B
S11307D0B1E08D919C911197EAEAF1E091838083D5
S11307E012968D919C9113979383828314968D9185
S11307F09C9115979583848316968D919C91179758
S1130800978386831C968D919C911D9791878087F1
S11308101E968D919C911F979387828781E0809388
S11308207701B6C080917701813009F0B1C0A9E8A1
S1130830B1E08D919C911197EEEBF1E0918380836F
S113084012968D919C9113979383828314968D9124
S11308509C9115979583848316968D919C911797F7
S1130860978386831C968D919C911D979187808791
S11308701E968D919C911F97938782871092770182
S113088087C0CE01880F991FFC01E254FE4F2081DE
S11308903181FC01E655FE4F80819181A901481BFD
S11308A0590B4B305105A8F18E01000F111FF801AF
S11308B0E655FE4F808191810A9602541E4FD8015D
S11308C011969C938E9360817181ED90FC9080E0F1
S11308D090E00E94860928E431EE4AE75FE30E9433
S11308E0140A4B015C01B70180E090E00E94860984
S11308F02AE037ED43EA5CE30E94140A9B01AC0151
S1130900C501B4010E9479080E945709F801718356
S113091060832196C630D10509F0B3CF44EF51E08E
S113092060E070E0C1E0D0E0FB01EE0FFF1FE55690
S1130930FE4F1182108280E090E0DF01FC01EE0F97
S1130940FF1FE254FE4F208131812417350778F0D0
S11309502D913C911197FE01082E02C0EE0FFF1F4E
S11309600A94E2F72E2B3F2B11963C932E9301967B
S11309708630910519F76F5F7F4F425351096530F7
S1130980710591F6EAE7F0E080818064808303C01A
S1130990C0E0D0E076CFFF91EF91DF91CF91BF918E
S11309A0AF919F918F917F916F915F914F913F9103
S11309B02F911F910F91FF90EF90BF90AF909F9058
S11309C08F900F900FBE0F901F9018951F920F924B
S11309D00FB60F9211242F933F934F935F936F930E
S11309E07F938F939F93AF93BF93EF93FF938091E4
S11309F0B900803A09F4ACC148F48038F1F0883881
S1130A0009F4A2C1803609F021C30FC0883B09F460
S1130A1016C320F4883A09F49FC118C3803C09F432
S1130A2012C3883C09F40FC311C3109274011092CD
S1130A30730185EC8093BC0009C38091730190918C
S1130A407401892B89F48091BB0090E09093760126
S1130A508093750181E090E0909374018093730119
S1130A6085EC8093BC00F2C2809173019091740173
S1130A70019709F0EBC28091750190917601807F16
S1130A809927892B49F580917501909176010197F9
S1130A9071F48091BB00809372010E945300109204
S1130AA074011092730185E88093BC00CFC28091D9
S1130AB0750190917601892B09F0C8C28091BB0021
S1130AC0809372010E945500109274011092730178
S1130AD085E88093BC00BAC280917501909176013B
S1130AE0807F9927809709F041C08091750190918A
S1130AF07601809781F48091BB008093720180918C
S1130B0072010E947700109274011092730185E8BB
S1130B108093BC009BC2809175019091760183976C
S1130B2079F48091BB008093720181E00E948E0071
S1130B30109274011092730185E88093BC0086C200
S1130B408091750190917601829709F07FC280911E
S1130B50BB008093720180E00E948E0010927401A9
S1130B601092730185E88093BC0070C28091750176
S1130B7090917601807F9927C09709F067C2809190
S1130B80750190917601C09721F58091BB00809307
S1130B9072011092740110927301309172013695B2
S1130BA03170209172012170809172018695869531
S1130BB083709091720192959170EDE7F1E030832A
S1130BC021839093A7018093810185E88093BC00E1
S1130BD03DC28091750190917601C19771F4809125
S1130BE0BB008093720110927401109273010E94F1
S1130BF0E70185E88093BC0029C28091750190913A
S1130C007601C297B1F48091BB0080937201109277
S1130C107401109273010E9401028091820181305B
S1130C2021F483E0809378012A9A85E88093BC00BC
S1130C300DC28091750190917601C39799F48091CA
S1130C40BB00809372018091720190E090938001C7
S1130C5080937F01109274011092730185E8809350
S1130C60BC00F4C18091750190917601C49799F408
S1130C708091BB00809372018091720190E0909307
S1130C80CD018093CC01109274011092730185E818
S1130C908093BC00DBC18091750190917601C99766
S1130CA099F48091BB00809372018091720190E06D
S1130CB090937A01809379011092740110927301D8
S1130CC085E88093BC00C2C1809175019091760142
S1130CD0CA9709F0BBC18091BB00809372018091D7
S1130CE0790190917A01892B39F4809172018111F3
S1130CF003C01092820120C081E080938201809120
S1130D00990190919A019093A6018093A5018091F5
S1130D1085019091860190937C0180937B01809161
S1130D20790190917A0120917201982F8827822B62
S1130D3090937A0180937901109274011092730157
S1130D4085E88093BC0082C185E88093BC007EC1A5
S1130D5085EC8093BC007AC18091750190917601F5
S1130D60807F9927409709F0A8C0809175019091E0
S1130D707601409759F48091BE019091BF019695F8
S1130D808795969587958093BB0055C18091750191
S1130D9090917601419759F48091C0019091C101DD
S1130DA096958795969587958093BB0044C18091CD
S1130DB0750190917601429759F48091C201909106
S1130DC0C30196958795969587958093BB0033C10B
S1130DD08091750190917601439759F48091C401F3
S1130DE09091C50196958795969587958093BB00BC
S1130DF022C18091750190917601449759F48091B4
S1130E00C6019091C701969587959695879580938D
S1130E10BB0011C18091750190917601459759F4F9
S1130E208091C8019091C90196958795969587956B
S1130E308093BB0000C18091750190917601469723
S1130E4039F480919B0190919C018093BB00F3C085
S1130E508091750190917601479739F480919D01B5
S1130E6090919E018093BB00E6C0809175019091A2
S1130E707601489739F480919F019091A001809365
S1130E80BB00D9C08091750190917601499739F4DE
S1130E908091A1019091A2018093BB00CCC080916C
S1130EA07501909176014A9709F0C5C08091A3011C
S1130EB09091A4018093BB00BEC080917501909174
S1130EC07601807F9927809781F5809175019091B3
S1130ED07601819709F0AFC08091830190918401DC
S1130EE09C012F5F3F4F3093840120938301FC01C9
S1130EF0EA54FE4F80818093BB002091A801309179
S1130F00A90180918301909184012817390709F080
S1130F1092C02A98109278011092A9011092A80107
S1130F20109284011092830186C080917501909182
S1130F307601807F9927C09709F05EC0809199015E
S1130F4090919A019093CB018093CA01809185017D
S1130F50909186019093BD018093BC0180917501AD
S1130F6090917601C39739F480917F01909180012B
S1130F708093BB0060C08091750190917601C49705
S1130F8039F48091CC019091CD018093BB0053C082
S1130F908091750190917601C59739F48091CA01C9
S1130FA09091CB019093BB0046C0809175019091C4
S1130FB07601C69739F48091CA019091CB01809350
S1130FC0BB0039C08091750190917601C79739F4BF
S1130FD08091BC019091BD019093BB002CC0809185
S1130FE0750190917601C89731F58091BC0190917B
S1130FF0BD018093BB001FC0809175019091760163
S1131000807F992780349105B1F480917501909186
S113101076018034910579F4809178018093BB0046
S113102080917801823011F42A9805C0809178016A
S1131030833009F42A9885E88093BC0007C085E8CA
S11310408093BC0003C085EC8093BC00FF91EF91BA
S1131050BF91AF919F918F917F916F915F914F91CC
S11310603F912F910F900FBE0F901F901895880FEE
S11310708093BA001092BD0085E48093BC0008956B
S113108060E076E980E090E00E9490010E948F0386
S11310900E9457000E94940380E40E943708109233
S11310A09A011092990110928601109285012FEFF6
S11310B08DE399E4215080409040E1F700C00000A6
S11310C0789408950E94400881E00E948E002A9836
S11310D0109278011092A9011092A8012FEF89E6CD
S11310E098E1215080409040E1F700C00000FFCF1C
S11310F05058BB27AA270E9490080C94DA090E9432
S1131100CC0938F00E94D30920F039F49F3F19F438
S113111026F40C94C9090EF4E095E7FB0C94C3097A
S1131120E92F0E94EB0958F3BA1762077307840783
S1131130950720F079F4A6F50C940D0A0EF4E095C9
S11311400B2EBA2FA02D0B01B90190010C01CA017D
S1131150A0011124FF27591B99F0593F50F4503E28
S113116068F11A16F040A22F232F342F4427585F1A
S1131170F3CF469537952795A795F0405395C9F732
S11311807EF41F16BA0B620B730B840BBAF09150EA
S1131190A1F0FF0FBB1F661F771F881FC2F70EC089
S11311A0BA0F621F731F841F48F48795779567955C
S11311B0B795F7959E3F08F0B0CF9395880F08F048
S11311C09927EE0F9795879508950E94F9080C9436
S11311D0DA090E94D30958F00E94CC0940F029F49E
S11311E05F3F29F00C94C30951110C940E0A0C941E
S11311F0C9090E94EB0968F39923B1F3552391F3CC
S1131200951B550BBB27AA2762177307840738F071
S11312109F5F5F4F220F331F441FAA1FA9F335D0CE
S11312200E2E3AF0E0E832D091505040E695001C82
S1131230CAF72BD0FE2F29D0660F771F881FBB1F3C
S1131240261737074807AB07B0E809F0BB0B802D1A
S1131250BF01FF2793585F4F3AF09E3F510578F046
S11312600C94C3090C940E0A5F3FE4F3983ED4F344
S1131270869577956795B795F7959F5FC9F7880F1A
S1131280911D9695879597F90895E1E0660F771F6C
S1131290881FBB1F621773078407BA0720F0621BFD
S11312A0730B840BBA0BEE1F88F7E09508950E9428
S11312B0F30988F09F5798F0B92F9927B751B0F0E8
S11312C0E1F0660F771F881F991F1AF0BA95C9F7C6
S11312D014C0B13091F00E940D0AB1E008950C944D
S11312E00D0A672F782F8827B85F39F0B93FCCF300
S11312F0869577956795B395D9F73EF49095809543
S1131300709561957F4F8F4F9F4F0895E89409C062
S113131097FB3EF490958095709561957F4F8F4F24
S11313209F4F9923A9F0F92F96E9BB279395F6953A
S1131330879577956795B795F111F8CFFAF4BB0FB8
S113134011F460FF1BC06F5F7F4F8F4F9F4F16C01C
S1131350882311F096E911C0772321F09EE8872FA6
S1131360762F05C0662371F096E8862F70E060E062
S11313702AF09A95660F771F881FDAF7880F9695DB
S1131380879597F9089597F99F6780E870E060E082
S113139008959FEF80EC089500240A94161617060A
S11313A018060906089500240A9412161306140652
S11313B005060895092E0394000C11F4882352F0B5
S11313C0BB0F40F4BF2B11F460FF04C06F5F7F4F6D
S11313D08F4F9F4F089557FD9058440F551F59F054
S11313E05F3F71F04795880F97FB991F61F09F3F0E
S11313F079F087950895121613061406551FF2CF37
S11314004695F1DF08C0161617061806991FF1CF86
S113141086957105610508940895E894BB276627AD
S11314207727CB0197F908950E94270A0C94DA09CB
S11314300E94CC0938F00E94D30920F0952311F0C2
S11314400C94C3090C94C90911240C940E0A0E942B
S1131450EB0970F3959FC1F3950F50E0551F629F00
S1131460F001729FBB27F00DB11D639FAA27F00DF9
S1131470B11DAA1F649F6627B00DA11D661F829F20
S11314802227B00DA11D621F739FB00DA11D621F05
S1131490839FA00D611D221F749F3327A00D611D22
S11314A0231F849F600D211D822F762F6A2F112404
S11314B09F5750409AF0F1F088234AF0EE0FFF1F37
S11314C0BB1F661F771F881F91505040A9F79E3F8E
S11314D0510580F00C94C3090C940E0A5F3FE4F3A9
S11314E0983ED4F3869577956795B795F795E795E4
S11314F09F5FC1F7FE2B880F911D9695879597F9ED
S10915000895F894FFCFEA
S113150641542B4E414D453D434C45414E0D0A0039
S113151641542B505357443D6773720D0A0041548E
S11315262B554152543D33383430302C302C300D49
S11315360A0041542B524F4C453D310D0A0041548B
S11315462B494E49540D0A0041542B504149523DF2
S113155600323032302C352C313731353339002CCA
S113156632300D0A0041542B524F4C453D300D0A82
S105157600006F
S9030000FC
